:03000000020800F3
:0C080000787FE4F6D8FD758123020847DC
:10095B005354433132433541363053320D0A5561CE
:0C096B007274205465737420210D0A0082
:0C099000021C000002100000C100C18227
:10088C00E4F51CF51DAF1D74122FF8A607051DE528
:10089C001D7002051C640A451C70EA759850758918
:1008AC0020758DFDD28ED2ACD2AF7BFF7A09795BED
:1008BC001209187FF47E0112093D3002F67B007A92
:0A08CC00007912120918C20280E937
:030023000208D6FA
:0708D600C0E0C0D075D0089E
:1008DD0030982CC298AF99BF7304D2008021BF65A8
:1008ED000CC200751000751100D202801230000F7D
:1008FD0074122511F8A60F0511E5117002051030BF
:06090D009904C299C20129
:05091300D0D0D0E0325D
:08099D002001FDD2018F992217
:100918008B218A228923AB21AA22A9231209776075
:10092800130523E5237002052214F9120977FF1233
:05093800099D80E22290
:10093D00D3EF9400EE940040147DE87C03ED1D7020
:0D094D00011CED4C70F7EF1F70E61E80E3FB
:01095A00227A
:10080C0002088CE493A3F8E493A34003F68001F26E
:10081C0008DFF48029E493A3F85407240CC8C333ED
:10082C00C4540F4420C8834004F456800146F6DFBC
:10083C00E4800B0102040810204080900990E47EB3
:10084C00019360BCA3FF543F30E509541FFEE493B1
:10085C00A360010ECF54C025E060A840B8E493A378
:10086C00FAE493A3F8E493A3C8C582C8CAC583CAA3
:10087C00F0A3C8C582C8CAC583CADFE9DEE780BE5B
:01099C00005A
:10097700BB010689828A83E0225002E722BBFE027E
:09098700E32289828A83E49322B1
:00000001FF
