:0300000002129059
:0C129000787FE4F6D8FD7581610212D76A
:10142000042100000017045C0000000004560000C6
:0A1430000000025A000002600000F4
:1013600075BB7012144A7F647E00121402E4F560AB
:10137000F561AF6174252FF8E6FE74432FF8A606D9
:101380000561E561700205606413456070E4121345
:03139000BD80D34A
:0F143B007F6712145D121465BF6702D322C322AC
:1013BD00E4F560F56174432561F8E6FF12145D05EF
:1013CD0061E56170020560C39413E56064809480EB
:0313DD0040E322C8
:10139300E4F560F56112146574252561F8A6070567
:1013A30061E56170020560C3941EE560648094800A
:0A13B30040E3120D4A500122C3224C
:100D4A00E4F55FF55EF55DF55CF559F558F557F58F
:100D5A0056F55AF55BF560F5610561E561700205C6
:100D6A0060641E456070F2AC60AD61EC120A038FDC
:100D7A00178E168D158C147F007E007D007C401224
:100D8A000FD0C004C005C006C00774252561F8E667
:100D9A00FCE4120A08D003D002D001D0001208F8ED
:100DAA00C004C005C006C007AF59AE58AD57AC560F
:100DBA00EC1209FED003D002D001D00012080712AB
:100DCA000A3C8F598E588D578C56E5596524F55F24
:100DDA00E5586523F55EE5576522F55DE55665211B
:100DEA00F55CE47B02FAF9F8AF5FAE5EAD5DAC5C30
:100DFA0012131CAE02EB255BF55BEE355AF55AAFC2
:100E0A005FAE5EAD5DAC5CE47B02FAF9F812131CCE
:100E1A008F5F8E5E8D5D8C5CE47B02FAF9F81213AB
:100E2A001CAE02EB255BF55BEE355AF55AAF5FAEA9
:100E3A005EAD5DAC5CE47B02FAF9F812131C8F5FBD
:100E4A008E5E8D5D8C5CE47B02FAF9F812131CAE9F
:100E5A0002EB255BF55BEE355AF55AAF5FAE5EAD38
:100E6A005DAC5CE47B02FAF9F812131C8F5F8E5EAC
:100E7A008D5D8C5CE47B02FAF9F812131CAE02EB6E
:100E8A00255BF55BEE355AF55A455B7002D322C3F2
:010E9A002235
:1010E700E4F55FF55EF55DF55CF559F558F557F5EF
:1010F70056F55AF55BF560F561AC60AD61EC120A27
:10110700038F178E168D158C147F007E007D007C53
:1011170040120FD0C004C005C006C0077443256144
:10112700F8E6FCE4120A08D003D002D001D000127E
:1011370008F8C004C005C006C007AF59AE58AD5780
:10114700AC56EC1209FED003D002D001D000120831
:1011570007120A3C8F598E588D578C560561E561E9
:1011670070020560C39413E56064809480408AE54B
:10117700596524F55FE5586523F55EE5576522F562
:101187005DE5566521F55C756000756112C3E56123
:10119700940EE560648094805054E47B02FAF9F879
:1011A700AF5FAE5EAD5DAC5C12131CAE02AF038EDB
:1011B7005A8F5BAF5FAE5EAD5DAC5CE47B02FAF964
:1011C700F812131C8F5F8E5E8D5D8C5CE55B64018E
:1011D700455A700974432561F876318007744325B1
:0F11E70061F87630E561156170A31560809F2275
:0A144A00D2ACD2AF759850021454D2
:09145400758920758DFDD28E22F0
:08145D008F993099FDC299221C
:04146500AF99C298E1
:011469002260
:030023000213E0E5
:1013E000C0E0C0F0C083C082C0D075D0083098077C
:1013F000C2AC121393D2ACD0D0D082D083D0F0D074
:02140000E032D8
:10140200D3EF9400EE940040147DE87C03ED1D7050
:0D141200011CED4C70F7EF1F70E61E80E32B
:01141F0022AA
:10080000020AA8E86480F8E933E83360110460F074
:10081000ED33EC337009E8FCE9FDEAFEEBFF22045E
:1008200060DED3EB9FEA9EE99DE8C2E78CF0C2F759
:1008300095F0400CE8CCF8E9CDF9EACEFAEBCFFB25
:10084000120A7385D0F05804700320D5B3E8047001
:10085000075002B2D5020AB292D5EC0460F7E4CC9C
:10086000C0E0C398F8603B94186008400DD0E0FBEE
:10087000020A8AE4FBFAC9FC8028E830E406E4C9ED
:10088000FBE4CAFCE830E305E4C9CACBFCE8540742
:100890006010F8C3E913F9EA13FAEB13FBEC13FC4D
:1008A000D8F130F52FC3E49CFCEF9BFFEE9AFEEDF0
:1008B00099FDD0E0FBEF4E4D4C701222DB03020A93
:1008C000AFEC2CFCEF33FFEE33FEED33FDED30E704
:1008D000EB020A8AEF2BFFEE3AFEED39FDD0E0FB8A
:1008E00050130BBB0003020AB2ED13FDEE13FEEF33
:0808F00013FFEC13FC020A8A5D
:1008F800EC4D6011E8497017ED33EC3304600DE4FA
:10090800FCFFFEFD22E933E8330470F8020AA8125E
:100918000A7358046009E4CC24815006285009025F
:100928000AB2284003020AAFC0E0EB4A7044B9801B
:1009380006D0E0FB020A9EEF4E701CBD8008EBFF5C
:10094800EAFEE9FD80EBE98DF0A4FEE5F00209E19D
:10095800E9CDF9EAFEEBFFEF89F0A4FCE5F0CE89DA
:10096800F0A42EFFE435F0CD89F0A42DFEE435F097
:100978008067EF4E7005BD80D780C3EF8BF0A4ACC5
:10098800F0EE8BF0A42CFCE435F0F8EF8AF0A42C00
:10099800E5F038FCE433CB8DF0A42CFCE5F03BF813
:1009A800EE8AF0A42CFCE5F038F8E433CF89F0A403
:1009B8002CFCE5F038CF3400CE89F0A42FFFE5F009
:1009C8003EFEE433C98DF0A42EFEE5F039CD8AF061
:1009D800A42FFFE5F03EFEE43DFD33D0E0FB5007D9
:1009E8000BBB000F020AB2EC2CFCEF33FFEE33FE18
:0609F800ED33FD020A8A46
:1009FE0075F020800E75F010800575F0087D007E74
:100A0E00007F003392D530D503120C4EEC334010DC
:100A1E00EF33FFEE33FEED33FDEC33FCD5F0ED227C
:0E0A2E00E5F0247EA2D513CC92E7CDCEFF22B8
:100A3C00EDD2E7CD33EC3392D524814006E4FFFEB2
:100A4C00FDFC22FCE4CFCECDCC24E0501174FF8011
:100A5C00EDC3CC13CCCD13CDCE13CECF13CF0470AE
:070A6C00F030D5DE020C4E54
:100FD0008F138E128D118C10E4FFFE7D807C3FAB51
:100FE00013AA12A911A810120AD77009AF13AE12D2
:100FF000AD11AC1022AF13AE12AD11AC10120ABD80
:10100000FBAF17AE16AD15AC14120ABDFFBF010839
:10101000E4FFFE7D807C3F22EF64046022EB6404E9
:10102000601DBB0127E4FFFEFDFCAB17AA16A91546
:10103000A814120AD760084006E4FFFEFDFC2274E3
:10104000FFF517F516F515F5140210DEE4F518F5A1
:1010500019FFFEFDFCAB13AA12A911A810120AD7A2
:10106000504BAF17AE16AD15AC14120A3C8E188F4C
:1010700019AC18AD19EC120A03C8ECC8C9EDC9CAFD
:10108000EECACBEFCBAF17AE16AD15AC14120803FA
:10109000E4FBFAF9F8120AD770A5AF13AE12AD113E
:1010A000AC10120B508F138E128D118C10AF13AE2B
:1010B00012AD11AC10120ECFAB17AA16A915A814B9
:1010C0001208F812122E8F178E168D158C14E51932
:1010D00030E00B120B508F178E168D158C14AF1736
:0710E000AE16AD15AC1422A1
:100A7300E9D2E7C933E833F892D5EDD2E7CD33ECC9
:070A830033FC5002B2D52242
:100A8A00EC30E7100FBF000C0EBE00080DBD0004CD
:100A9A000BEB6014A2D5EB13FCED92E7FD2274FF79
:100AAA00FCFDFEFF22E480F8A2D574FF13FC7D80D2
:030ABA00E480EFE6
:100ABD00ED33EC33601004700FED547F700574024C
:0A0ACD0092E0227404220422E422C5
:100AD70074F8CC6480CCC86480C8F58204604FC3C6
:100AE700EB9FF5F0EA9E42F0E99D42F0E89C45F065
:100AF700603C501DE5825FFFE582D313CB5BCBF4EF
:100B07002B5582FB50280ABA002409B90020088017
:100B17001DE5825BFBE582D313CF5FCFF4C3132FB1
:100B27005582FF50090EBE00050DBD00010CC3EB39
:100B37009FF5F0EA9E42F0E99D42F0E89C45F0609F
:090B470007CC4820E701B3EC22C1
:100B5000ED33EC33600A047003BD8004ECB2E7FCB3
:010B60002272
:1011F60033DA929E35B16011377FE5FE3921848955
:101206003AAEC3FF3C1D955B3D6358473E75FDF006
:101216003F3172183F800000C2D5020AB2020AA806
:10122600BD80FA50F3020AAFED33EC330460F17B74
:101236003B7AAA79B8783F1208F8ED33EC3392D5A9
:10124600247B5011A2D570DB500BED448024045052
:1012560004A2D580CEEFFBEEFAEDF9ECF8120A3CCB
:10126600EFF582F404FC120A08120807C0829011F6
:10127600F67409120C10ED33CC33D0F092D525F06C
:0A128600A2D57001C313CC13FD22A2
:100E9B003E9248DA3ECCCCCD3F2AAAAB40000000B4
:100EAB003F8000003F9837F03FB504F33FD744FC39
:100EBB003E3172173EB172173F0515913EDE5BD97D
:100ECB00D2008002C200EDD2E7F8CD33EC330470D0
:100EDB000BBD800592D5020AB2020AA840FBD314BF
:100EEB0060F2F5F07C3FEE7A00C39496C8948B4089
:100EFB00230AC89469C8941A401A0AC89468C894FB
:100F0B001F40110AC8945AC89425400805F07A006E
:100F1B00CDC2E7CDC0F08C1A8D1B8E1C8F1DEA2322
:100F2B0023C0E024ABF582E4340EF583120C6C1273
:100F3B000807ECC0E0EDC0E0EEC0E0EFC0E0120C43
:100F4B005CA81AA91BAA1CAB1D120803D0E0FBD08E
:100F5B00E0FAD0E0F9D0E0B2E7F8120B648C1A8D0E
:100F6B001B8E1C8F1D900E9B7403120C01A81AA9CB
:100F7B001BAA1CAB1D1208F8D0E0600F24B7F5823A
:100F8B00E4340EF583120C6C1208078C1A8D1B8E31
:100F9B001C8F1DD0E0C3947FFDE49400FC120A0368
:100FAB007B187A727931783F1208F8A81AA91BAA14
:100FBB001CAB1D12080730000B7BD97A5B79DE78EE
:050FCB003E1208F822AF
:100B6100020AB2EC5D046005E859047003020AA8A8
:100B7100120A73580460F6EC4860F2EC7004FDFE52
:100B8100FF22C860DB2481C85009C3986002500667
:100B9100020AAF9850CAF582E9294B4A7005AB8227
:100BA100020A9E75F0007C1A7880C3EF9BEE9AEDE5
:100BB10099400DC3EF9BFFEE9AFEED99FDE842F0DF
:100BC100DC23ACF0D0E0FFD0E0FED0E0FDAB822032
:100BD100E7101BEB60BAEC2CFCEF33FFEE33FEEDBC
:100BE10033FD020A8AE803F830E705C0F075F0002A
:100BF100EF2FFFEE33FEED33FD40B830E7C280AAA0
:100C0100C0E0EFFBEEFAEDF9ECF81208F8D0E0F5F0
:100C1100F0EFFBEEFAEDF9ECF8120C5CA3A3A3A341
:100C2100E8C0E0E9C0E0EAC0E0EBC0E0C0F01208D3
:100C3100F8120C6CA3A3A3A3120807D0F0D0E0FB19
:0D0C4100D0E0FAD0E0F9D0E0F8D5F0D422F0
:10129C00021360E493A3F8E493A34003F68001F2F5
:1012AC0008DFF48029E493A3F85407240CC8C33353
:1012BC00C4540F4420C8834004F456800146F6DF22
:1012CC00E4800B0102040810204080901420E47E7E
:1012DC00019360BCA3FF543F30E509541FFEE49317
:1012EC00A360010ECF54C025E060A840B8E493A3DE
:1012FC00FAE493A3F8E493A3C8C582C8CAC583CA09
:10130C00F0A3C8C582C8CAC583CADFE9DEE780BEC0
:01143A0000B1
:10131C00C2D5E830E70FB2D5E4C39BFBE49AFAE4FC
:10132C0099F9E498F8EC30E717B2D5121352120C75
:10133C00B8E4C39BFBE49AFAE499F9E498F88003C7
:10134C00120CB830D50DE4C39FFFE49EFEE49DFD66
:04135C00E49CFC22EF
:0E0C4E00C3E49FFFE49EFEE49DFDE49CFC22B7
:100C5C00E493FC740193FD740293FE740393FF22DE
:100C6C00E493F8740193F9740293FA740393FB22DE
:100C7C0075F008758200EF2FFFEE33FECD33CDCC2F
:100C8C0033CCC58233C5829BED9AEC99E5829840B2
:100C9C000CF582EE9BFEED9AFDEC99FC0FD5F0D68F
:100CAC00E4CEFBE4CDFAE4CCF9A88222B800C1B9B9
:100CBC000059BA002DEC8BF084CFCECDFCE5F0CBF7
:100CCC00F97818EF2FFFEE33FEED33FDEC33FCEB30
:100CDC0033FB10D703994004EB99FB0FD8E5E4F9EB
:100CEC00FA227818EF2FFFEE33FEED33FDEC33FCD8
:100CFC00C933C910D7059BE99A4007EC9BFCE99ACC
:100D0C00F90FD8E0E4C9FAE4CCFB2275F010EF2F10
:100D1C00FFEE33FEED33FDCC33CCC833C810D70710
:100D2C009BEC9AE899400AED9BFDEC9AFCE899F84B
:0E0D3C000FD5F0DAE4CDFBE4CCFAE4C8F922DE
:00000001FF
