:03000000020800F3
:0C080000787FE4F6D8FD758123020847DC
:0C097900021C000002100000C100C1823E
:1008DC00E4F51CF51DAF1D74122FF8A607051DE5D8
:1008EC001D7002051C640A451C70EA7598507589C8
:1008FC0020758DFDD28ED2ACD2AF7FF47E01120961
:10090C00423002F67B007A00791212091DC2028075
:01091C00E9F1
:0300230002088C44
:07088C00C0E0C0D075D008E8
:1008930030983AC298AF99BF730AD20075100075A9
:1008A3001100801230000F74122511F8A60F0511E4
:1008B300E51170020510C3E511940AE510648094F4
:1008C30080400AC200751000751100D202309904ED
:0408D300C299C20103
:0508D700D0D0D0E0329A
:080986002001FDD2018F99222E
:10091D008B218A228923AB21AA22A9231209606087
:10092D00130523E5237002052214F9120960FF1245
:05093D00098680E222A2
:10094200D3EF9400EE940040147DE87C03ED1D701B
:0D095200011CED4C70F7EF1F70E61E80E3F6
:01095F002275
:10080C000208DCE493A3F8E493A34003F68001F21E
:10081C0008DFF48029E493A3F85407240CC8C333ED
:10082C00C4540F4420C8834004F456800146F6DFBC
:10083C00E4800B0102040810204080900979E47ECA
:10084C00019360BCA3FF543F30E509541FFEE493B1
:10085C00A360010ECF54C025E060A840B8E493A378
:10086C00FAE493A3F8E493A3C8C582C8CAC583CAA3
:10087C00F0A3C8C582C8CAC583CADFE9DEE780BE5B
:010985000071
:10096000BB010689828A83E0225002E722BBFE0295
:09097000E32289828A83E49322C8
:00000001FF
