:03000000020800F3
:0C080000787FE4F6D8FD75816802084797
:1008FA00026500130224001E04260000001704618A
:10090A0000000000045B00000000025F00000267B4
:0D091A000000C101C1000221000001230105
:0308C70075BB708E
:1008CA00E4F508F50920A41A20A40A0509E5097027
:1008DA00F7050880F3D3E509940AE5089400400275
:0E08EA00B2007F327E00120928A200B392C530
:0208F80080D0AE
:10092800D3EF9400EE940040147DE87C03ED1D7035
:0D093800011CED4C70F7EF1F70E61E80E310
:01094500228F
:0609580012088C9200223F
:10088C0020A41EC3E52294F4E5219401500A05220C
:10089C00E522702505218021E523601DE4F523D395
:1008AC0022D3E5229400E5219400400AE52215228A
:0A08BC00700715218003752301C3A6
:0108C600220F
:09094600300003D2C522C2C52213
:09094F00758920758DFDD28E2200
:10080C000208C7E493A3F8E493A34003F68001F233
:10081C0008DFF48029E493A3F85407240CC8C333ED
:10082C00C4540F4420C8834004F456800146F6DFBC
:10083C00E4800B01020408102040809008FAE47E4A
:10084C00019360BCA3FF543F30E509541FFEE493B1
:10085C00A360010ECF54C025E060A840B8E493A378
:10086C00FAE493A3F8E493A3C8C582C8CAC583CAA3
:10087C00F0A3C8C582C8CAC583CADFE9DEE780BE5B
:0109270000CF
:00000001FF
