:03000000020800F3
:0C080000787FE4F6D8FD75816802084797
:10090F00026500130224001E042600000017046174
:10091F0000000000045B00000000025F000002679F
:0D092F000000C101C10002210000012301F0
:06088C00E4F50875BB70E5
:10089200E4F509F50A20A41F20A40A050AE50A7056
:1008A200F7050980F3D3E50A940AE50994004002AA
:1008B200B200A200B392C57F327E0012093D300021
:1008C200CFAF080508EFD3940440C5E4F508B2C5DC
:0208D20080BEE6
:10093D00D3EF9400EE940040147DE87C03ED1D7020
:0D094D00011CED4C70F7EF1F70E61E80E3FB
:01095A00227A
:06096D001208D4920022E2
:1008D40020A41EC3E52294F4E5219401500A0522C4
:1008E400E522702505218021E523601DE4F523D34D
:1008F40022D3E5229400E5219400400AE522152242
:0A090400700715218003752301C35D
:01090E0022C6
:09095B00300003D2C522C2C522FE
:09096400758920758DFDD28E22EB
:10080C0002088CE493A3F8E493A34003F68001F26E
:10081C0008DFF48029E493A3F85407240CC8C333ED
:10082C00C4540F4420C8834004F456800146F6DFBC
:10083C00E4800B010204081020408090090FE47E34
:10084C00019360BCA3FF543F30E509541FFEE493B1
:10085C00A360010ECF54C025E060A840B8E493A378
:10086C00FAE493A3F8E493A3C8C582C8CAC583CAA3
:10087C00F0A3C8C582C8CAC583CADFE9DEE780BE5B
:01093C0000BA
:00000001FF
