:03000000020E628B
:0C0E6200787FE4F6D8FD758167020EA9C8
:100F3C00042300000017045E00000000044F0000B2
:100F4C000000025300000263000002210000C100F7
:100F5C00C182016200015500015600015700015881
:100F6C0000015900015A00015B00015C00015D00A9
:090F7C0001650001660001670037
:10100E00E4F510F51175BB70120F8620A108754A14
:10101E00011209E08003E4F54A120D940511E51161
:10102E00AE10700205101464644E7007F510F511C1
:0B103E0012107D3002D512080080D097
:08104900AD64AC637F027E0080
:081051008E128F138D828C8337
:10105900E58245836019AC12AD13AF03AE02120CE1
:10106900B4AA06AB07E582158270E5158380E1AF66
:0310790003AE02C1
:01107C002251
:100B9D00E4F561F560F55FF55EF552F551F550F54B
:100BAD004FF553F554F563F5640564E5647002057E
:100BBD00636414456370F212104974272564F8E6D6
:100BCD00FD7C00120CB4EE3395E0FDFCE5522FF5E3
:100BDD0052E5513EF551E5503DF550E54F3CF54F91
:100BED00E5526526F561E5516525F560E55065240D
:100BFD00F55FE54F6523F55EE47B02FAF9F8AF6129
:100C0D00AE60AD5FAC5E120FCAAE02EB2554F5546B
:100C1D00EE3553F553AF61AE60AD5FAC5EE47B0274
:100C2D00FAF9F8120FCA8F618E608D5F8C5EE47BCE
:100C3D0002FAF9F8120FCAAE02EB2554F554EE354F
:100C4D0053F553AF61AE60AD5FAC5EE47B02FAF974
:100C5D00F8120FCA8F618E608D5F8C5EE47B02FA95
:100C6D00F9F8120FCAAE02EB2554F554EE3553F5D3
:100C7D0053AF61AE60AD5FAC5EE47B02FAF9F81282
:100C8D000FCA8F618E608D5F8C5EE47B02FAF9F87E
:100C9D00120FCAAE02EB2554F554EE3553F55345FC
:070CAD00547002D322C322A0
:100D9400E4F561F560F55FF55EF552F551F550F552
:100DA4004FF553F554F563F564121049743B25640B
:100DB400F8E6FD7C00120CB4EE3395E0FDFCE55240
:100DC4002FF552E5513EF551E5503DF550E54F3CC8
:100DD400F54F0564E56470020563C39410E563642C
:100DE40080948040C4E5526526F561E5516525F59A
:100DF40060E5506524F55FE54F6523F55E75630096
:100E0400756413E47B02FAF9F8AF61AE60AD5FACD0
:100E14005E120FCAAE02AF038E538F54AF61AE6041
:100E2400AD5FAC5EE47B02FAF9F8120FCA8F618EF3
:100E3400608D5F8C5EE554640145537009743B25F5
:100E440064F876018007743B2564F8E4F6E56415DC
:0E0E54006470021563E564640F456370A622A6
:1009E000E4FFFE2093222093070FBF00010E80F644
:1009F000D3EF9408EE9400400CE53C70047D018038
:100A0000027D008D3CE4FEFF20B22220B2070FBF22
:100A100000010E80F6D3EF9408EE9400400CE53D03
:100A200070047D0180027D008D3DE4FEFF20B32235
:100A300020B3070FBF00010E80F6D3EF9408EE94A9
:100A400000400CE53E70047D0180027D008D3EE497
:100A5000FEFF20B42220B4070FBF00010E80F6D3A2
:100A6000EF9408EE9400400CE53F70047D01800295
:100A70007D008D3FE4FEFF20B52220B5070FBF00AB
:100A8000010E80F6D3EF9408EE9400400CE5407020
:100A9000047D0180027D008D40E4FEFF20B622200F
:100AA000B6070FBF00010E80F6D3EF9408EE940056
:100AB000400CE54170047D0180027D008D41E4FE23
:100AC000FF20B72220B7070FBF00010E80F6D3EF3B
:100AD0009408EE9400400CE54270047D0180027D94
:100AE000008D42E4FEFF20A62220A6070FBF0001D2
:100AF0000E80F6D3EF9408EE9400400CE5437004AA
:100B00007D0180027D008D43E4FEFF20A52220A50B
:100B1000070FBF00010E80F6D3EF9408EE9400405B
:100B20000CE54470047D0180027D008D44E4FEFFED
:100B300020A42220A4070FBF00010E80F6D3EF945B
:100B400008EE9400400CE54570047D0180027D00B4
:100B50008D45E4FEFF20A32220A3070FBF00010E56
:100B600080F6D3EF9408EE9400400CE54670047DC7
:100B70000180027D008D46E4FEFF20A21F20A20717
:100B80000FBF00010E80F6D3EF9408EE9400400CE6
:0C0B9000E54770047D0180027D008D4768
:010B9C002236
:10080000E527B40211AF620562EFD394644007E4B8
:10081000F562B2A0800FE527B40104C2A08006E50E
:10082000277002D2A0E528B40211AF550555EFD3C9
:1008300094644007E4F555B280800FE528B40104C4
:10084000C2808006E5287002D280E529B40211AF8B
:10085000560556EFD394644007E4F556B281800FF5
:10086000E529B40104C2818006E5297002D281E540
:100870002AB40211AF570557EFD394644007E4F54B
:1008800057B282800FE52AB40104C2828006E52AAD
:100890007002D282E52BB40211AF580558EFD39401
:1008A000644007E4F558B283800FE52BB40104C21D
:1008B000838006E52B7002D283E52CB40211AF5978
:1008C0000559EFD394644007E4F559B284800FE5ED
:1008D0002CB40104C2848006E52C7002D284E52D7C
:1008E000B40211AF5A055AEFD394644007E4F55AA5
:1008F000B285800FE52DB40104C2858006E52D7018
:1009000002D285E52EB40211AF5B055BEFD3946490
:100910004007E4F55BB286800FE52EB40104C28681
:100920008006E52E7002D286E52FB40211AF5C0579
:100930005CEFD394644007E4F55CB287800FE52F49
:10094000B40104C2878006E52F7002D287E530B477
:100950000211AF5D055DEFD394644007E4F55DB22D
:10096000C6800FE530B40104C2C68006E5307002CF
:10097000D2C6E531B40211AF650565EFD39464408A
:1009800007E4F565B2C5800FE531B40104C2C58046
:1009900006E5317002D2C5E532B40211AF660566D4
:1009A000EFD394644007E4F566B2C4800FE532B437
:1009B0000104C2C48006E5327002D2C4E533B40239
:1009C00010AF670567EFD394644006E4F567B2A7FC
:1009D00022E533B40103C2A722E5337002D2A72275
:100F8600759850758920758DFDD28ED2ACD2AFE49E
:100F9600F563F564743B2564F8E4F60564E564706E
:100FA6000205636414456370EBE4F563F564742726
:100FB6002564F8E4F60564E5647002056364144587
:040FC6006370EB2247
:03002300020EEEDC
:070EEE00C0E0C0D075D00880
:100EF500309838C298AF99BFFF0AD20075210075A6
:100F05002200801230000F74272522F8A60F052233
:100F1500E52270020521C3E5229414E521940040E1
:100F25000AC200752100752200D202309904C299C7
:020F3500C201F7
:050F3700D0D0D0E03233
:0810A0002001FDD2018F99220D
:10107D00E4F563F564743B2564F8E6FF1210A005F2
:10108D0064E56470020563C39414E5636480948021
:03109D0040E3220B
:100E6E0002100EE493A3F8E493A34003F68001F27C
:100E7E0008DFF48029E493A3F85407240CC8C33385
:100E8E00C4540F4420C8834004F456800146F6DF54
:100E9E00E4800B0102040810204080900F3CE47E99
:100EAE00019360BCA3FF543F30E509541FFEE49349
:100EBE00A360010ECF54C025E060A840B8E493A310
:100ECE00FAE493A3F8E493A3C8C582C8CAC583CA3B
:100EDE00F0A3C8C582C8CAC583CADFE9DEE780BEF3
:010F8500006B
:100CB400EF8DF0A4A8F0CF8CF0A428CE8DF0A42E54
:020CC400FE220E
:100FCA00C2D5E830E70FB2D5E4C39BFBE49AFAE452
:100FDA0099F9E498F8EC30E717B2D5121000120D1F
:100FEA0002E4C39BFBE49AFAE499F9E498F88003D3
:100FFA00120D0230D50DE4C39FFFE49EFEE49DFD71
:04100A00E49CFC2244
:100CC60075F008758200EF2FFFEE33FECD33CDCCE5
:100CD60033CCC58233C5829BED9AEC99E582984068
:100CE6000CF582EE9BFEED9AFDEC99FC0FD5F0D645
:100CF600E4CEFBE4CDFAE4CCF9A88222B800C1B96F
:100D06000059BA002DEC8BF084CFCECDFCE5F0CBAC
:100D1600F97818EF2FFFEE33FEED33FDEC33FCEBE5
:100D260033FB10D703994004EB99FB0FD8E5E4F9A0
:100D3600FA227818EF2FFFEE33FEED33FDEC33FC8D
:100D4600C933C910D7059BE99A4007EC9BFCE99A81
:100D5600F90FD8E0E4C9FAE4CCFB2275F010EF2FC6
:100D6600FFEE33FEED33FDCC33CCC833C810D707C6
:100D76009BEC9AE899400AED9BFDEC9AFCE899F801
:0E0D86000FD5F0DAE4CDFBE4CCFAE4C8F92294
:00000001FF
